{
  "transactions": [
    {
      "hash": "0xc29b0a07ed4e464222824cf483c5fcb49d2be8a6d4b7928e69f3e322cf045c5d",
      "transactionType": "CREATE",
      "contractName": "Counter",
      "contractAddress": "0x5a31b9407095dd9a295139c4f0183c076051632d",
      "function": null,
      "arguments": null,
      "transaction": {
        "from": "0x750ea21c1e98cced0d4557196b6f4a5974ccb6f5",
        "gas": "0x31c56",
        "value": "0x0",
        "input": "0x608060405234801561000f575f80fd5b506101e18061001d5f395ff3fe608060405234801561000f575f80fd5b506004361061003f575f3560e01c80633fb5c1cb146100435780638381f58a1461005f578063d09de08a1461007d575b5f80fd5b61005d600480360381019061005891906100e4565b610087565b005b610067610090565b604051610074919061011e565b60405180910390f35b610085610095565b005b805f8190555050565b5f5481565b5f808154809291906100a690610164565b9190505550565b5f80fd5b5f819050919050565b6100c3816100b1565b81146100cd575f80fd5b50565b5f813590506100de816100ba565b92915050565b5f602082840312156100f9576100f86100ad565b5b5f610106848285016100d0565b91505092915050565b610118816100b1565b82525050565b5f6020820190506101315f83018461010f565b92915050565b7f4e487b71000000000000000000000000000000000000000000000000000000005f52601160045260245ffd5b5f61016e826100b1565b91507fffffffffffffffffffffffffffffffffffffffffffffffffffffffffffffffff82036101a05761019f610137565b5b60018201905091905056fea2646970667358221220093af6477d0406b57d741b2c5e25fd34dd7956eb38a37882efc78914a8972f2d64736f6c63430008140033",
        "nonce": "0x47",
        "chainId": "0x4268"
      },
      "additionalContracts": [],
      "isFixedGasLimit": false
    },
    {
      "hash": "0x6bff519cb35a59975c8c7984d459e3651f7376fe33c68d15cecffd233e9489a4",
      "transactionType": "CALL",
      "contractName": "Counter",
      "contractAddress": "0x5a31b9407095dd9a295139c4f0183c076051632d",
      "function": "setNumber(uint256)",
      "arguments": [
        "69420"
      ],
      "transaction": {
        "from": "0x750ea21c1e98cced0d4557196b6f4a5974ccb6f5",
        "to": "0x5a31b9407095dd9a295139c4f0183c076051632d",
        "gas": "0xebe3",
        "value": "0x0",
        "input": "0x3fb5c1cb0000000000000000000000000000000000000000000000000000000000010f2c",
        "nonce": "0x48",
        "chainId": "0x4268"
      },
      "additionalContracts": [],
      "isFixedGasLimit": false
    }
  ],
  "receipts": [
    {
      "status": "0x1",
      "cumulativeGasUsed": "0x1ee9a97",
      "logs": [],
      "logsBloom": "0x00000000000000000000000000000000000000000000000000000000000000000000000000000000000000000000000000000000000000000000000000000000000000000000000000000000000000000000000000000000000000000000000000000000000000000000000000000000000000000000000000000000000000000000000000000000000000000000000000000000000000000000000000000000000000000000000000000000000000000000000000000000000000000000000000000000000000000000000000000000000000000000000000000000000000000000000000000000000000000000000000000000000000000000000000000000",
      "type": "0x2",
      "transactionHash": "0xc29b0a07ed4e464222824cf483c5fcb49d2be8a6d4b7928e69f3e322cf045c5d",
      "transactionIndex": "0x4d",
      "blockHash": "0xfa96f9b3a557e51369432ce7c2593a5f61887ab9a906f9cba9e74342c3b87ec8",
      "blockNumber": "0x39cc92",
      "gasUsed": "0x26491",
      "effectiveGasPrice": "0x3558a7",
      "from": "0x750ea21c1e98cced0d4557196b6f4a5974ccb6f5",
      "to": null,
      "contractAddress": "0x5a31b9407095dd9a295139c4f0183c076051632d"
    },
    {
      "status": "0x1",
      "cumulativeGasUsed": "0x1ef455f",
      "logs": [],
      "logsBloom": "0x00000000000000000000000000000000000000000000000000000000000000000000000000000000000000000000000000000000000000000000000000000000000000000000000000000000000000000000000000000000000000000000000000000000000000000000000000000000000000000000000000000000000000000000000000000000000000000000000000000000000000000000000000000000000000000000000000000000000000000000000000000000000000000000000000000000000000000000000000000000000000000000000000000000000000000000000000000000000000000000000000000000000000000000000000000000",
      "type": "0x2",
      "transactionHash": "0x6bff519cb35a59975c8c7984d459e3651f7376fe33c68d15cecffd233e9489a4",
      "transactionIndex": "0x4e",
      "blockHash": "0xfa96f9b3a557e51369432ce7c2593a5f61887ab9a906f9cba9e74342c3b87ec8",
      "blockNumber": "0x39cc92",
      "gasUsed": "0xaac8",
      "effectiveGasPrice": "0x3558a7",
      "from": "0x750ea21c1e98cced0d4557196b6f4a5974ccb6f5",
      "to": "0x5a31b9407095dd9a295139c4f0183c076051632d",
      "contractAddress": null
    }
  ],
  "libraries": [],
  "pending": [],
  "returns": {},
  "timestamp": 1746456853,
  "chain": 17000,
  "commit": null
}